{
  "contractName": "Loteria",
  "abi": [
    {
      "constant": true,
      "inputs": [
        {
          "name": "",
          "type": "uint256"
        }
      ],
      "name": "punters",
      "outputs": [
        {
          "name": "",
          "type": "address"
        }
      ],
      "payable": false,
      "stateMutability": "view",
      "type": "function"
    },
    {
      "constant": true,
      "inputs": [],
      "name": "owner",
      "outputs": [
        {
          "name": "",
          "type": "address"
        }
      ],
      "payable": false,
      "stateMutability": "view",
      "type": "function"
    },
    {
      "inputs": [],
      "payable": false,
      "stateMutability": "nonpayable",
      "type": "constructor"
    },
    {
      "constant": false,
      "inputs": [],
      "name": "deposit",
      "outputs": [],
      "payable": true,
      "stateMutability": "payable",
      "type": "function"
    },
    {
      "constant": true,
      "inputs": [],
      "name": "GenerateRandomNum",
      "outputs": [
        {
          "name": "",
          "type": "uint256"
        }
      ],
      "payable": false,
      "stateMutability": "view",
      "type": "function"
    },
    {
      "constant": false,
      "inputs": [],
      "name": "pickWinner",
      "outputs": [],
      "payable": false,
      "stateMutability": "nonpayable",
      "type": "function"
    }
  ],
  "bytecode": "0x608060405234801561001057600080fd5b50336000806101000a81548173ffffffffffffffffffffffffffffffffffffffff021916908373ffffffffffffffffffffffffffffffffffffffff1602179055506104e5806100606000396000f3fe60806040526004361061004a5760003560e01c80632926b72d1461004f5780632f160a4b146100ca5780635d495aea146100f55780638da5cb5b1461010c578063d0e30db014610163575b600080fd5b34801561005b57600080fd5b506100886004803603602081101561007257600080fd5b810190808035906020019092919050505061016d565b604051808273ffffffffffffffffffffffffffffffffffffffff1673ffffffffffffffffffffffffffffffffffffffff16815260200191505060405180910390f35b3480156100d657600080fd5b506100df6101a9565b6040518082815260200191505060405180910390f35b34801561010157600080fd5b5061010a6101ef565b005b34801561011857600080fd5b5061012161034a565b604051808273ffffffffffffffffffffffffffffffffffffffff1673ffffffffffffffffffffffffffffffffffffffff16815260200191505060405180910390f35b61016b61036f565b005b6001818154811061017a57fe5b906000526020600020016000915054906101000a900473ffffffffffffffffffffffffffffffffffffffff1681565b600042446001805490506040516020018084815260200183815260200182815260200193505050506040516020818303038152906040528051906020012060001c905090565b6000809054906101000a900473ffffffffffffffffffffffffffffffffffffffff1673ffffffffffffffffffffffffffffffffffffffff163373ffffffffffffffffffffffffffffffffffffffff16141561034857600061024e6101a9565b90506000600180549050828161026057fe5b06905060006001828154811061027257fe5b9060005260206000200160009054906101000a900473ffffffffffffffffffffffffffffffffffffffff1690508073ffffffffffffffffffffffffffffffffffffffff166108fc3073ffffffffffffffffffffffffffffffffffffffff16319081150290604051600060405180830381858888f193505050501580156102fc573d6000803e3d6000fd5b50600060405190808252806020026020018201604052801561032d5781602001602082028038833980820191505090505b50600190805190602001906103439291906103ec565b505050505b565b6000809054906101000a900473ffffffffffffffffffffffffffffffffffffffff1681565b670de0b6b3a764000034101561038457600080fd5b60013390806001815401808255809150509060018203906000526020600020016000909192909190916101000a81548173ffffffffffffffffffffffffffffffffffffffff021916908373ffffffffffffffffffffffffffffffffffffffff16021790555050565b828054828255906000526020600020908101928215610465579160200282015b828111156104645782518260006101000a81548173ffffffffffffffffffffffffffffffffffffffff021916908373ffffffffffffffffffffffffffffffffffffffff1602179055509160200191906001019061040c565b5b5090506104729190610476565b5090565b6104b691905b808211156104b257600081816101000a81549073ffffffffffffffffffffffffffffffffffffffff02191690555060010161047c565b5090565b9056fea165627a7a72305820dbd9138cb6ef447fbd57557e71aa575c1754714746bfea28bc45842f64ea41ec0029",
  "source": "pragma solidity ^0.5.0;\r\n\r\ncontract Loteria{\r\n\r\n\taddress public owner;\r\n\r\n\taddress payable [] public punters;\r\n\r\n\tconstructor() public{\r\n\t\towner = msg.sender;\r\n\t}\r\n\t\r\n\tmodifier OwnerOnly{\r\n\t\tif(msg.sender == owner){\r\n\t\t\t_;\r\n\t\t}\r\n\t}\r\n\r\n\tfunction deposit() public payable{\r\n\t\trequire(msg.value >=1 ether);\r\n\t\tpunters.push(msg.sender);\r\n\t}\r\n\r\n\tfunction GenerateRandomNum() public view returns(uint){\r\n\t\treturn uint(keccak256(abi.encodePacked(now, block.difficulty, punters.length)));\r\n\r\n\t}\r\n\r\n\tfunction pickWinner() OwnerOnly public{\r\n\t\tuint randomNumber = GenerateRandomNum();\r\n\t\tuint index = randomNumber % punters.length;\r\n\r\n\t\taddress payable winner;\r\n\r\n\t\twinner = punters[index];\r\n\r\n\t\twinner.transfer(address(this).balance);\r\n\r\n\t\tpunters = new address payable [](0);\r\n\t}\r\n}",
  "sourcePath": "C:/Users/jppc9/Documents/Insper/Ativos Digitais e Blockchain/ativos-blockchain/Loteria/contracts/Loteria.sol",
  "compiler": {
    "name": "solc",
    "version": "0.5.8+commit.23d335f2.Emscripten.clang"
  },
  "schemaVersion": "3.0.16",
  "updatedAt": "2019-11-29T14:36:33.565Z",
  "devdoc": {
    "methods": {}
  },
  "userdoc": {
    "methods": {}
  }
}